:020000041000EA
:1000000000200008CB0000100D0000002D010010A2
:1000100000000000000000000000000000000000E0
:100020000000000000000000000000002901001096
:10003000000000000000000029010010290100104C
:1000400029010010290100102901001029010010C8
:1000500029010010290100102901001029010010B8
:1000600029010010290100102901001029010010A8
:100070002901001029010010290100102901001098
:1000800010B5064C2378002B07D1054B002B02D06E
:10009000044800E000BF0123237010BDEC020008FB
:1000A0000000000074110010044B10B5002B03D0A9
:1000B0000349044800E000BF10BDC0460000000036
:1000C000F0020008741100107047FFF7FDFF72B6D0
:1000D0000F4C104DAC4209DA21686268A368043BFA
:1000E00002DBC858D050FAE70C34F3E70A490B4A50
:1000F0000020521A02DD043A8850FCDC0848094905
:100100000860BFF34F8F00F0E9F800F075F9FEE7E3
:100110007811001090110010EC020008CC040008C7
:100120000000000808ED00E0FEE7FEE700B504204F
:100130007146084202D0EFF3098001E0EFF3088036
:10014000043000F0DBFBFEE710B5002000F098FA69
:1001500010BD7047F8B5E0234E4C9B00E2580F23CA
:10016000D02107201A4093001B19890059580140DB
:1001700065D0042959D04848002A65D1B223B1225C
:100180000321DB00D200E558A358A6581B0F360FF9
:100190000B400E4204D0A258120F0A40012A01D18E
:1001A000EA0701D4032B11D1B0233C4ADB00E65807
:1001B000A158E558C904C90C00F0ACFDB3039B0B72
:1001C0005843E901C90F013100F0A4FDE0239B0071
:1001D000E358334A9B069B0FD840324B1860324B92
:1001E000D458D158240A090E013100F093FD2F4B49
:1001F000E1B21860013100F08DFD2D4B0400186054
:100200002C4B2D4918602D4BC01800F083FDFA21AE
:100210002B4B890018702B4BE01800F07BFD2A4B0C
:1002200018602A4BC0031860F8BDC0211F20890048
:1002300059580140112904D1802000029CE724482C
:100240009AE7FA20C00197E7013A012ABED80327AE
:10025000204A9E58204A99589D582D0F3D4204D05F
:100260009D582D0F3D40012D01D1F50703D4890084
:10027000890F0329AAD19E5899589D587F2333404E
:100280001F26090A3140584300F044FD290C314033
:100290009AE7C0460000264000366E018405000043
:1002A00000002040840000080810000088000008BA
:1002B000800000089000000840420F003F420F00FD
:1002C00098000008E7030000940000088C00000874
:1002D00000127A003C060000FC05000010B51D4825
:1002E00000F0A6F8B022E02130201B4CD200A35829
:1002F00089005B005B08A3506358834363508023ED
:100300005B04A350154B164AE250A022043392011D
:10031000E250FF22134BE25000F096FCC022012174
:100320005200A3588B43A350FFF713FFFFF712FFB0
:100330000D4A8021032000F00BFA0C4800F07EF8F3
:100340000B4B1B6851331B78002B02D0094800F07F
:10035000E3F810BDC40E0010000026408405000024
:10036000010002008C050000980200080803000844
:10037000C8040008900E001010B5902400F051F849
:10038000074B64011A5907491140074A0A431A5199
:10039000102259681142FCD000F047F810BDC04649
:1003A00000002040FCFF00000100FA05F8B5902590
:1003B0000E4C6D01070000F034F863590600DB4372
:1003C0009B0701D1FFF7D8FF80239B00E7506359BB
:1003D000074A1A40074B13436351102362681A42BD
:1003E000FCD0300000F021F8F8BDC04600002040ED
:1003F000FCFF00000300FA0510B562B60348FFF7E2
:10040000D5FF002000F08AFBFBE7C046002000106B
:100410000230800803D001300238FCD1C046C0460B
:100420007047EFF3108072B6704780F31088704702
:10043000014B18607047C046C8040008024B1A6898
:10044000002A00D11860704788040008F7B52C4DC9
:100450001F002B68040000910192002B03D1BF21E3
:10046000284800F03BFA2C23FF225C432B683D0018
:100470001C193B0A3F0CA760234F134063603B6885
:100480001540256031331B789D4204D3E9211F4874
:10049000490000F023FA3B681A00B0321288554335
:1004A0001A6A3233AD1825611B7865689D4204D302
:1004B000F7211648490000F011FA3B6880351B6AA5
:1004C0006D01A668ED186561330C08D00F4F104917
:1004D000380000F003FA0F49380000F0FFF9330448
:1004E0001A0C1343AB60019BE361009B2362002362
:1004F000A361089B002B01D01B88A381F7BDC046D8
:10050000880400087C0F0010C8040008E20F0010E7
:100510000D0200000E020000F0B5040085B00028B6
:1005200003D15C21214800F0D9F96368032B03D97A
:100530005E211E4800F0D2F9E36A002B03D162214C
:100540001A4800F0CBF9236B002B03D16321174825
:1005500000F0C4F9A36802AD2B80154B22681B681C
:10056000E16ADB8EE0689B186B806368A26A039384
:1005700000952369266A676AFFF768FF00213B0040
:100580000A0000913000FFF761FF216B280000F0A6
:1005900051F90022AB5E002B06DB1F2213401E3AEE
:1005A0009A401300034A136005B0F0BD7C0F0010A1
:1005B000C804000800E100E0002373B504000193C3
:1005C000984204D1DC212C48FF3100F087F92369DF
:1005D000002B04D1EE212848490000F07FF963691F
:1005E000002B04D1DE212448FF3100F077F9236A83
:1005F000002B04D1EF212048490000F06FF9626917
:10060000D5682B0C22D01B04136013681B4B206988
:100610001B68B4331B68C3181B68002B16DA01A9CA
:1006200000F05CFB0026B0420CD10198E26903683F
:100630001E0CDBB29A4205D9226A9B009B58002B04
:1006400000D098473100206900F010FBADB2002DBA
:1006500009D063691D6000251B68636AAB4205D041
:1006600098476562A56163691B6873BDA36A002B27
:10067000F8D09847F6E7C0467C0F0010C804000881
:1006800070B5084C05002368002B04D1BC21064836
:10069000FF3100F023F92C20454320684019FFF773
:1006A0008BFF70BD880400087C0F001070B50A4DE8
:1006B00004002B6831331B78834204D8E9210748B2
:1006C000490000F00BF92B681A00B032108844433F
:1006D000186A201870BDC046C8040008E20F001058
:1006E000F8B5174B0D001B6831331B78834225D9B1
:1006F000002923D01F240B681C401FD1FFF7D6FF11
:1007000007002B680F4EDA0821003060686800F09F
:100710008DFB2100380000F0A9FA21002A00306882
:1007200000F0C2FA041E07D10100306800F09EFA02
:1007300003002000002B00D00348F8BD0348FCE76D
:10074000C80400088C04000801018A0003018A0023
:1007500010B50C00002A07D100290DD1FFF7A6FF24
:10076000064B1860200010BD002905D004490C601C
:100770004A60FFF7B5FFF6E70248F4E78C0400088B
:10078000A802000803018A0070B5194E05003368FD
:100790000C001A0028321278012A15D1820807218C
:1007A000100088430FD103202840C00084401B68FC
:1007B000920020339B182200FF24844019684A408D
:1007C00014404C401C6070BD5B8F8B4203D1802174
:1007D000084800F083F8336807201A68802328400F
:1007E0001B06184380239B01E418A400A050EAE7ED
:1007F000C8040008481000100A4B70B59B680A4EE8
:1008000010300D008400B34209D1002904D14221E7
:100810000648FF3100F062F83059355170BD044B85
:100820001859FBE700ED00E0000000084810001038
:1008300000000010F8B506000D00002841D0436804
:10084000032B03D93C21204800F048F80023F05E38
:10085000002828DB7188FFF797FF0024FF22032779
:1008600094460023F05E716883B21F40FF00664625
:10087000BA4089013140D243B940002815DB134EFC
:1008800083089B009B19C026B6009F593A4011432C
:1008900099510F4B9A680F4B9A4202D12900FFF7EA
:1008A000ABFF2000F8BD0C4CD8E70F263340083BC7
:1008B000074E9B089B009B19DE6932401143D961AA
:1008C000E7E7054CEDE7C0464810001000E100E006
:1008D00000ED00E0000000080100560070B50D00BA
:1008E000044C01001822200000F0A8FAA56101BE06
:1008F000FEE7C046B0020008FEE7000002680A4BAF
:1009000010B5DA6142681A6282685A62C2689A62F5
:100910000269DA6242691A6382695A63C2699A6338
:10092000FFF7EAFF10BDC046B0020008B0235B0528
:100930005A782120002A01D05878C0B27047B023DD
:100940005B059A89002A02D0988980B2704780207E
:100950004000FBE710B5074C236831331B78002BB0
:1009600004D1E92104484900FFF7B8FF2368186A59
:1009700010BDC046C8040008E20F001030B50400E6
:1009800085B00D00042803D927492848FFF7A6FFA2
:100990006B1E012B07D9FB222B1F134203D02449C6
:1009A0002248FFF79BFF234BA400E458042D01D0FD
:1009B000012D1AD100200FE0A3682B420BD1E36870
:1009C00029001A685B6802920193039302A82368C6
:1009D0009847194B1C606469002C04D0174B98424F
:1009E000EAD1012DE8D105B030BD022D06D1124B60
:1009F0001B68181EF7D01C6903E01C006369002BFC
:100A0000FBD10020002CEED0A3682B4209D1E36873
:100A100029001A685B6802920193039302A8236875
:100A200098472469EEE7C046E6090000AC100010C4
:100A3000E7090000B4040008B0040008FF00420009
:100A400010B5041E03D111491148FFF747FFF222E8
:100A5000104BD2011B68DB689A582260F022D20149
:100A60009A5862600C4A9A58A2600C4A9A58E260FE
:100A70000B4A9A5822610B4A9A5862610A4A9A585C
:100A8000A2610A4A9B58E36110BDC046D50A000026
:100A9000AC100010C80400080478000008780000BA
:100AA0000C7800001078000014780000187800001E
:100AB00010B5041E03D110491048FFF70FFFF022B4
:100AC0000F4B61681B68D201DB689950A1680D4A21
:100AD0009950E1680C4A995021690C4A9950616912
:100AE0000B4A9950A1690B4A9950E1690A4A9950F9
:100AF0002168E832995010BDFD0A0000AC100010CA
:100B0000C804000804780000087800000C78000091
:100B1000107800001478000018780000F7B507007E
:100B2000012803D940494148FFF7D8FE404D6B6882
:100B3000002B4AD1FFF775FC6B680190002B56D152
:100B40003C4E33681A0043321278002A07D09B6863
:100B5000E0331B68DB0602D53748FFF771FFFFF76C
:100B6000EEFE80235B00984246D1380000F088F901
:100B7000002433681A0043321278002A17D0002864
:100B800015D09B68E0331B68DB0610D5FFF7CEFE5F
:100B9000294B212808D032681300B0331988072365
:100BA0004B43126A9B18DB681800FFF781FF01981E
:100BB000FFF73BFC002C0ED16B68002B03D0082103
:100BC0000120FFF7DBFE2000FEBD01210800FFF73A
:100BD000D5FE041EAED06B68002B03D0022101208D
:100BE000FFF7CCFE154B9C42EDD0154CEBE70421F2
:100BF0000120FFF7C3FEA3E7FFF7ACFE3368B43371
:100C00001B68C0180368002B0BDB04230D4A116915
:100C10000B431361012F02D030BF0020A8E720BF93
:100C2000FBE70020054CA4E7AF020000AC10001069
:100C3000B4040008C804000890040008050042003D
:100C4000FF00420000ED00E0C02280200649520073
:100C50008B58C0059B009B0803438B50802388580A
:100C60001B0603438B507047000026400B4B70B5AA
:100C70001B680500B4331B680C00C3181B68002BED
:100C80000ADA0B0C04D0B92105488900FFF726FECB
:100C90000020A4B26C6070BD0248FCE7C8040008E4
:100CA000E20F001001008A00036870B505000C0017
:100CB000002B0ADAC2600B0C03D005490548FFF788
:100CC0000DFE0020A4B2AC6070BD0348FCE7C04636
:100CD000CA020000E20F001001008A0070B5050092
:100CE0000C1E03D1A3210848FFF7F8FD074B1B6832
:100CF000B4331B68EB181B68002B03DA0020EB6889
:100D0000236070BD0248FCE70F110010C804000802
:100D100001008A00002243088B4274D303098B42EE
:100D20005FD3030A8B4244D3030B8B4228D3030CBB
:100D30008B420DD3FF22090212BA030C8B4202D35D
:100D40001212090265D0030B8B4219D300E0090A85
:100D5000C30B8B4201D3CB03C01A5241830B8B428E
:100D600001D38B03C01A5241430B8B4201D34B0377
:100D7000C01A5241030B8B4201D30B03C01A5241DC
:100D8000C30A8B4201D3CB02C01A5241830A8B4261
:100D900001D38B02C01A5241430A8B4201D34B024A
:100DA000C01A5241030A8B4201D30B02C01A5241AE
:100DB000CDD2C3098B4201D3CB01C01A5241830962
:100DC0008B4201D38B01C01A524143098B4201D39C
:100DD0004B01C01A524103098B4201D30B01C01AC7
:100DE0005241C3088B4201D3CB00C01A5241830841
:100DF0008B4201D38B00C01A524143088B4201D36E
:100E00004B00C01A5241411A00D2014652411046CD
:100E10007047FFE701B5002000F006F802BDC046AC
:100E20000029F7D076E770477047C04603001218D4
:100E3000934200D1704719700133F9E730B50500CE
:100E4000002A00D130BD0C78013A6B1C2C700131A6
:100E5000002C05D19A189A42F4D01C700133FAE79D
:100E60001D00EDE7F8B5C046F8BC08BC9E467047CB
:100E7000F8B5C046F8BC08BC9E46704700000000AC
:100E800001B40248844601BC604700BFA5000008C9
:100E9000030000000100000001000000000000004D
:100EA00005036000040000000100000000000000D5
:100EB000010000000604600008000000680400084B
:100EC00049010010000020400000244000000040C4
:100ED00000000000000023400000304000003140CE
:100EE00000009F4000002240000010400202020269
:100EF000020202020210101D800017007500FF039D
:100F00000602063604102000000000007FC000002A
:100F100000040000000000000019324B647D0080D6
:100F20004000080B100000000000FF012002001F1D
:100F300000800004FF081018001000140018001CA6
:100F40004044484C50000000081000000800000019
:100F50000400000004100000001200000421000042
:100F6000002100000016000040114002C4130013CD
:100F70008013A013200000001C000000433A2F55EE
:100F8000736572732F6F6875642F4D6F647573543A
:100F90006F6F6C626F785F322E302F6C6962726196
:100FA000726965732F70736F633673772D312E32CC
:100FB0002F636F6D706F6E656E74732F70736F63D8
:100FC0003670646C2F647269766572732F736F75F7
:100FD0007263652F63795F6970635F706970652EF6
:100FE0006300433A2F55736572732F6F6875642FD2
:100FF0004D6F647573546F6F6C626F785F322E3013
:101000002F6C69627261726965732F70736F6336DA
:1010100073772D312E322F636F6D706F6E656E7426
:10102000732F70736F633670646C2F6472697665AA
:1010300072732F696E636C7564652F63795F697075
:10104000635F6472762E6800433A2F55736572733E
:101050002F6F6875642F4D6F647573546F6F6C627A
:101060006F785F322E302F6C6962726172696573BE
:101070002F70736F633673772D312E322F636F6D40
:10108000706F6E656E74732F70736F633670646CFF
:101090002F647269766572732F736F757263652F33
:1010A00063795F737973696E742E6300433A2F55C9
:1010B000736572732F6F6875642F4D6F6475735409
:1010C0006F6F6C626F785F322E302F6C6962726165
:1010D000726965732F70736F633673772D312E329B
:1010E0002F636F6D706F6E656E74732F70736F63A7
:1010F0003670646C2F647269766572732F736F75C6
:101100007263652F63795F737973706D2E6300432B
:101110003A2F55736572732F6F6875642F4D6F6426
:101120007573546F6F6C626F785F322E302F6C69FD
:10113000627261726965732F70736F633673772D96
:10114000312E322F636F6D706F6E656E74732F70FA
:10115000736F633670646C2F647269766572732F77
:10116000736F757263652F63795F6970635F647213
:10117000762E630000000000000000100000000850
:101180008000000098110010800000081802000084
:10119000EC020008E001000000093D0000127A00A6
:1011A00000093D000000D00700093D00A00F00002D
:1011B00004000000A900001081000010F7B56E4D7A
:1011C00004002A68536800931300B033198807237A
:1011D0004B43126A9B181A68002AFCDA00F0E0F808
:1011E0002A681300B033198807234B43212800D005
:1011F00096E0116A5B180221D8680143D960D9686A
:10120000C9072FD508208446944460461600D96843
:10121000C06F019111688836081835680768491948
:101220000D683902FF273F040F40694689882D0A5F
:101230002D0639432943D960902103684F4D090198
:101240002B400B430360136830681B181868054077
:101250002943196013686246D26F9A18126832687F
:101260009B181B68444D2A681300B0331988072364
:101270004B43126A9B1800225A600423404A1169AA
:101280000B431361012C50D030BF2A681300B033D8
:10129000198807234B43126A9B181A68002AFCDA44
:1012A00000F07EF8212842D1296807220B00012492
:1012B000B0331B8800205A430B6AD318DD682542DF
:1012C0001CD0080008300D68C06F2C4E2818056827
:1012D000DB6835401B0C1B061B0C2B4303600B000B
:1012E000883318680B6818180B6A0568D318DB6810
:1012F0002E401B0E1B023343036020000B6A0221A9
:10130000D218D3688B43D3601B4B1A681300B033D9
:10131000198807234B43126A9B1800225A60FEBDAE
:10132000126A9B18174ADA609CE720BFADE70020DD
:10133000009BFC331B698342E6D1A320124B134967
:10134000134A144FC0000E681D5814680F6006271A
:101350001F503E20106010483E371F501F58002F6E
:10136000FCDA00980D4FFC3007610E60A321C90024
:101370005D5001201460C7E7C8040008FF00FFFFAC
:1013800000ED00E09004000800002640080126401F
:10139000040126401E1F00001C050000AAAAAAAADC
:1013A00001B40248844601BC604700BF2D0900100B
:1013B000000000000000000000000000000000002D
:1013C000000000000000000000000000000000001D
:1013D000000000000000000000000000000000000D
:1013E00000000000000000000000000000000000FD
:1013F00000000000000000000000000000000000ED
:1020000000EC0F08EF2300100D0000003B2400102F
:102010003D2400103F240010412400100000000067
:102020000000000000000000000000004324001039
:10203000452400100000000047240010492400102F
:102040004B2400104B2400104B2400104B24001094
:102050004B2400104B2400104B2400104B24001084
:102060004B2400104B2400104B2400104B24001074
:102070004B2400104B2400104B2400104B24001064
:1022E00000F002F800F074F80AA090E8000C8244B4
:1022F0008344AAF10107DA4501D100F069F8AFF291
:10230000090EBAE80F0013F0010F18BFFB1A43F0D3
:102310000103184720760000707600000A4410F888
:10232000014B14F00F0508BF10F8015B240908BF2A
:1023300010F8014B6D1E05D010F8013B6D1E01F821
:10234000013BF9D1641E03D0641E01F8015BFBD18F
:102350009142E4D370470000103A24BF78C878C196
:10236000FAD8520724BF30C830C144BF04680C609B
:10237000704700000023002400250026103A28BFE3
:1023800078C1FBD8520728BF30C148BF0B607047E7
:1023900003681B0A28BF41F08001642900F0C48152
:1023A000752900F0C181782900F06382F52900F0D9
:1023B000F781732900F07C87002070471FB506F075
:1023C0002BFD9DE8030000F075FE01F033F91FBD01
:1023D000DFF814D003B403F070FE03BC01F050FA30
:1023E00001F064FA05F048FA00EC0F087047FFF7B7
:1023F000FDFF72B6154916484FF438720B6803603A
:10240000001D091D521E002AF8D11148114908600B
:10241000BFF34F8F1048804710488047FEE7FEE724
:10242000FEE704207146084203D0EFF3098000F074
:1024300002F8EFF3088002F097FBF2E7F1E7F0E72C
:10244000EFE7FEE7FEE7FEE7FEE7FEE7002000100D
:102450000020000808ED00E0E94F0010E122001024
:10246000801C800803D0401C801EFCD100BF704738
:10247000EFF3108072B6704780F310887047704792
:10248000004870476C26000870B5064600F0F6FD5F
:10249000056806F10B0020F00704B4429CBF002041
:1024A00070BD2B466A68BAB11068A04210D304F11F
:1024B000080188423CBF5068586007D35168101922
:1024C00041601168091B016058601460101D70BDE7
:1024D00013465268002AE7D12146284600F0D6FD6F
:1024E0000028DED170BD70B50446051F00F0C6FDA2
:1024F0000068002C14BF446870BD002C18BFAC42AB
:102500003CBF20466468F8D301680A18AA4218BF85
:10251000456003D12A6805461144016028684119C5
:10252000A1421CBF6C6070BD61686960216808448D
:10253000286070BD53EA020C00F069802DE9F04B71
:102540004FF00006002B1FBFB3FA83F503FA05F422
:1025500024FA05F65E4012BF1643B2FA82F502FA7B
:1025600005F4C5F120051EBF22FA05FC44EA0C045F
:10257000203556EA044C4FEA144418BF641C4FF04F
:1025800000084FF00009904271EB030C39D3002989
:1025900019BFB1FA81F701FA07F6B0FA80F700FA2D
:1025A00007F6C7F120071EBF20FA07FC46EA0C0613
:1025B0002037B6FBF4FCA7EB0507103F07F01F0B15
:1025C000CBF120062CFA06F60CFA0BFB44BFB346FF
:1025D0000026202FA4BF5E464FF0000B5BEA060CDE
:1025E00008BF4FF0010B19EB0B0948EB0608ABFBDA
:1025F000027C06FB02CC0BFB03CCC01B71EB0C0175
:10260000C1E70B46024641464846BDE8F08B13B58C
:102610004FF000004FF00001AFF30080BDE81C4018
:102620007047B2F120030AD5C2F1200301FA02F18A
:1026300020FA03F341EA030100FA02F0704700FABE
:1026400003F14FF000007047B2F120030AD5C2F148
:10265000200320FA02F001FA03F340EA030021FA12
:1026600002F1704721FA03F04FF0000170470000BB
:102670000FB4044910B503AA029800F01DFE10BC67
:102680005DF814FBC426000870B50446856900682F
:10269000C10601D5302600E02026C00707D070BD56
:1026A000D4E9012130469047206A401C20626D1E0B
:1026B000F6D570BD70B5044685690078C00707D1AE
:1026C00070BDD4E9012120209047206A401C20627F
:1026D0006D1EF6D570BD70B50C460546012A05D0B5
:1026E0002878800600D5EA69002302E0012305E08E
:1026F0005B1C934202D2E05C0028F9D1A869E6187D
:10270000C01AA861286A184428622846FFF7BCFF4F
:1027100004E0D5E9012114F8010B9047B442F8D345
:102720002846FFF7C7FF70BD2DE9F041064600249B
:1027300010687529314616A510D0AFF30080002827
:1027400002DA404213A507E031688A0701D512A5D5
:1027500002E0490704D511A5012401E0AFF3008090
:1027600000210A2206F1240709E0B0FBF2FCB0FBCD
:10277000F2F302FB1C00303078541846491C002844
:10278000F3D123462A463046BDE8F04100F00DBDA6
:10279000000000002D0000002B00000020000000C1
:1027A0002DE9F0418046D21D22F007020025D2E932
:1027B0000002F52915A614D0011E72F1000106DAF7
:1027C0000023D0EB030063EB020211A608E0D8F867
:1027D00000108B0701D50FA602E0490701D50EA610
:1027E00001251146002408F1240704E000F098FCBC
:1027F00030323A55641C50EA0102F7D12B4632467A
:1028000021464046BDE8F04100F0CFBC000000008A
:102810002D0000002B00000020000000F0B40D4649
:102820000188090502D5214C7C4402E01F4C7C4400
:102830000E34002100F1240608E002F00F0712090F
:10284000E75D42EA03721B097754491C52EA030709
:10285000F3D102780023120704D5702D06D009B1F8
:10286000022311342246F0BC00F09FBC0123103437
:10287000F8E770B504460D4621461068AFF30080B6
:10288000024629462046BDE870400023C6E7D21D17
:1028900022F00703D3E90023C0E70368126843F07E
:1028A000200303600823C3610023B7E70666000026
:1028B0002DE9F05F894604464FF0000ADFF874B155
:1028C000FB44C0F820A02046E1688847002874D067
:1028D000252806D0D4E901219047206A401C2062B7
:1028E000F1E700265F462046E16888472028054634
:1028F00007DB312D05D2781910F8200C08B10643FA
:10290000F1E7B00701D526F00406C4F81CA00027A3
:10291000C4F818A02A2D09D0284606F069FA38B361
:1029200004EB8708303DC8F8185019E059F8041B2B
:10293000204604EB87029161E1688847012F054634
:1029400018D1E069002820DA26F020061DE0D8F82A
:10295000180000EB800005EB40003038C8F8180084
:102960002046E1688847054606F042FA0028EED185
:10297000012F0AD02E2D08D12046E16888477F1C00
:102980000546022F46F02006C4DBA069002803DAC2
:10299000404246F00106A061F00701D026F0100683
:1029A0006C2D0BD0682D09D04C2D39D06A2D35D027
:1029B000742D35D07A2D33D016E038E0E1682F46FB
:1029C00020468847B842054609D16C2F26D04FF4DF
:1029D0008060E168064320468847054604E06C2F86
:1029E0001AD04FF4807006430DB3A5F141001928A9
:1029F00002D8203546F400664A462946204626601D
:102A00004E46FFF7C5FC80B101280BD0F61D26F01D
:102A1000070000F1080956E74020E4E78020D8E7E6
:102A20000020D6E706F104094DE7284652E7206A60
:102A3000BDE8F09F966500002DE9F041044616467A
:102A40000D464769007B80072ED0384603F04EFBC9
:102A500050BB3EB3012E02D0022E25D104E0204609
:102A600000F02BFD05441DE0384603F02BFBE16828
:102A7000002841F01001E16005DA204600F062FD17
:102A80000120BDE8F081C9030BD56268E16A91427B
:102A900000D81146A26911442269891A814200DDD9
:102AA00008460544002D01DA0220EAE7E16A606881
:102AB000E268814206D29103E06203D522F400313C
:102AC00041F01002A6690027AE4213DCE16A8142A0
:102AD00001D90B4600E0034603EB060C2369ACEB7F
:102AE000030CAC4506DD814201D98C4600E08446EA
:102AF0009C4505D1A760276042F02000A5620DE04B
:102B0000AD1BE669AE1B8142A66000D90846C01A1B
:102B1000281A20605819606022F0200003490840FC
:102B2000E060002084F84870ABE70000BFCFD7FF1B
:102B3000014906F064B90000C426000810B5044637
:102B400003E006F05CF9401C09D014F8010B0549BC
:102B50000028F6D1BDE810400A2006F050B94FF029
:102B6000FF3010BDC42600082DE9F0410C46074691
:102B70001646104600F06EF82078611C61280AD0D5
:102B8000722802D077283CD102E00125002405E01C
:102B90000225042402E0082448F2020511F8010B82
:102BA0002B2806D0622809D011F8010C74280AD00D
:102BB0000BE045F0030544F00204EFE745F004059F
:102BC00044F00104EAE744F010043846214603F0DB
:102BD0008FFA411C15D00021316171604FF40071F2
:102BE000F560F1617061200704D5304602220021B2
:102BF000FFF722FF306D40F0010030653046BDE840
:102C0000F0810020FBE72DE9F0410D460646104C0F
:102C1000206DC10704D0410804D020F00104F7E77B
:102C200022460EE05420FFF72FFC07000ED0206D47
:102C300047F00101084354212065384600F0B4F9FB
:102C40003A4629463046BDE8F0418DE70020D6E7F8
:102C5000702600082DE9F04704464FF000094FF0B8
:102C6000FF37C568D4E90486A80707D0204600F0DE
:102C70009DFC304603F023FA002802DA3846BDE80E
:102C8000F087280502D54046FFF72DFC4C21204651
:102C900000F08AF9206D20F0010020654846EEE73B
:102CA00030B503461D783DB10A4612F8014B1CB100
:102CB000AC42FAD15B1CF5E7181A30BD40EA0103BB
:102CC00010B59B070FD1042A0DD310C808C9121FD5
:102CD0009C42F8D020BA19BA884201D9012010BD0F
:102CE0004FF0FF3010BD1AB1D30703D0521C07E0DC
:102CF000002010BD10F8013B11F8014B1B1B07D140
:102D000010F8013B11F8014B1B1B01D1921EF1D1B0
:102D1000184610BD10B5431C02E010F8011B71B13C
:102D20008107FAD14FF0013202C88C1A8C4314EAA1
:102D3000C211F9D0C01A0A0603D0C01E10BDC01AB5
:102D400010BD0A0401D0801E10BD0902FCD0401E37
:102D500010BD032A40F2308010F0030C00F0158003
:102D600011F8013BBCF1020F624498BF11F801CB8E
:102D700000F8013B38BF11F8013BA2F1040298BFF3
:102D800000F801CB38BF00F8013B11F0030300F05D
:102D90006780083AC0F0088051F8043B083A51F8BF
:102DA00004CBA0E80810F5E7121D5CBF51F8043B06
:102DB00040F8043BAFF30080D20724BF11F8013B79
:102DC00011F801CB48BF11F8012B24BF00F8013BDB
:102DD00000F801CB48BF00F8012B7047431A28BF09
:102DE0009A427FF6B6AF10441144032A40F226807F
:102DF00010F0030F1EBF11F8013D521E00F8013DF7
:102E000010F0030F7FF4F6AF11F0030300F06D80B4
:102E1000083AC0F00B8051F8043D083A51F804CD4F
:102E200040F8043D40F804CDFFF7F3BF121D5CBF2E
:102E300051F8043D40F8043DAFF30080D20724BFB1
:102E400011F8013D11F801CD48BF11F8012C24BF44
:102E500000F8013D00F801CD48BF00F8012C704793
:102E600010B5203AC0F00B80B1E81850A0E8185017
:102E7000B1E81850A0E81850203ABFF4F5AF5FEA67
:102E8000027C24BFB1E81850A0E8185044BF18C90C
:102E900018C0BDE810405FEA827C24BF51F8043BB3
:102EA00040F8043B08BF7047D20728BF31F8023B07
:102EB00048BF11F8012B28BF20F8023B48BF00F89B
:102EC000012B7047431A28BF9A427FF6C9AF1044BE
:102ED000114410F0030F1EBF11F8013D521E00F8FF
:102EE000013D10F0030F7FF4F6AF103AC0F00A80F6
:102EF00010B531E9185020E91850103ABFF4F9AF75
:102F0000BDE81040530724BF31E9081020E908103C
:102F100044BF51F8043D40F8043D12F0030F08BFD0
:102F20007047D20728BF31F8023D48BF11F8012C85
:102F300028BF20F8023D48BF00F8012C704701B5BA
:102F400001F0FF03114643EA032242EA024200F085
:102F50000BF801BD02F0FF0343EA032242EA0242FA
:102F600000F002B84FF000020429C0F0128010F007
:102F7000030C00F01B80CCF1040CBCF1020F18BF55
:102F800000F8012BA8BF20F8022BA1EB0C0100F0E8
:102F90000DB85FEAC17C24BF00F8012B00F8012BBB
:102FA00048BF00F8012B70474FF0000200B51346F0
:102FB00094469646203922BFA0E80C50A0E80C5059
:102FC000B1F12001BFF4F7AF090728BFA0E80C500A
:102FD00048BF0CC05DF804EB890028BF40F8042B03
:102FE00008BF704748BF20F8022B11F0804F18BF70
:102FF00000F8012B7047000030B44FF0013C50F84E
:10300000042B51F8043BCCFA52F4D51A20D1FCB968
:1030100050F8042B51F8043BCCFA52F4D51A17D1CE
:10302000B4B950F8042B51F8043BCCFA52F4D51A39
:103030000ED16CB950F8042B51F8043BCCFA52F481
:10304000D51A05D1002CDAD030BC4FF00000704703
:1030500029BAB1FA81F111F01801D1F120008440B0
:10306000F2D1CA40CB4012F0FF0213F0FF0330BC94
:10307000D01A7047704770477047704700487047D4
:103080006C270008704770477047704738B5044692
:103090000A4600206946AFF30080002808BF38BD0B
:1030A00002460099204600F061FB012038BD012056
:1030B00000F07DBBF8B5AFF30080054600200C465C
:1030C000102000BF0646A819A0420DD93246694615
:1030D0000020AFF30080070008BF00F068FB0098F5
:1030E000A04218BF0546C419FFF7C8FF0560074690
:1030F000F01D20F007004619284600F00AF8B442F7
:1031000008BFF8BDA21B31463868BDE8F84000F0A2
:103110002DBB00210160C0E90110704710207047ED
:1031200030B5B0F10A0271F100034FEA900E4EEA99
:10313000817EB0EB0E0061EB91014FEA101E4EEA6A
:10314000017E10EB0E0041EB11114FEA102E4EEAFA
:10315000016E10EB0E0041EB11214FEA104E4EEACA
:10316000014E10EB0E0041EB1141401841F10001FE
:103170004FEAD00040EA41704FEAD1014FEA8104A2
:1031800044EA907410EB800544EB01046D1944EBA4
:103190000404521BA3414FF0000348BF0A3200D57C
:1031A00030BD401C41F1000130BD2DE9F0470D4616
:1031B00099469246044600F124080168880604D521
:1031C000E06921F01001216000E00120A84201DD4A
:1031D000471B00E00027A1697A1902EB0900081AD1
:1031E000A0612078C00602D42046FFF74DFA0026E1
:1031F00008E0D4E901211AF806009047206A401C33
:10320000761C20624E45F4DB2078C0060AD52046A5
:10321000FFF73AFA06E0D4E9012130209047206A0E
:10322000401C2062381EA7F10107F4DC07E0D4E956
:10323000012118F805009047206A401C2062281ED2
:10324000A5F10105F3DC2046FFF734FA20780006EB
:1032500002D50220BDE8F0870120FBE701694A1C86
:1032600002610878704700B58FB0CDE901310021C7
:10327000059105497944CDE9031011466846FFF7E9
:1032800017FB0FB000BD0000E5FFFFFF10B543695D
:1032900013B1AFF3008001E0FFF71DFA012010BD6C
:1032A000127800F124010A7000224A700122EDE731
:1032B00011684FF0FF32E9E7074B70B50D467B44CC
:1032C000FFF7D1FF0446284600F008F810B14FF090
:1032D000FF3070BD204670BD3D5B0000007B00F0FC
:1032E000800070472DE9F04705460C46C86820F479
:1032F000201040F48000C860800602D5084600F027
:1033000078F9E06841F282014FF0FF39014002296B
:1033100003D0204600F016F9B5E000F42041B1F5E5
:10332000004F0FD1C00306D56168E06A884200D81B
:103330000846606006E02069E0626060606902F053
:10334000C1FEA061A0680022EEB200280DDAE1689B
:103350008B050AD4C043A06041F490302260E06045
:103360006068411C61600670A5E0E06890462260DC
:1033700040F40050E060206968BB606902F0B6FE6E
:10338000012704F12405A0B1A08910F4407F08D0E2
:10339000E069FFF779F8206118B1E06840F4006057
:1033A00016E0E7612561E06820F4407040F4806039
:1033B0000EE0E069FFF768F800282061F1D0E068CE
:1033C00040F4006010F4407FE06002D140F480706F
:1033D000E06020696060E06825696FF0010AC1055E
:1033E0001FD56168E06A884200D80846411B04D0B6
:1033F0002246284600F0B0F8F0BBE068010203D591
:10340000E562C4E9015854E0691CE1626160E16968
:1034100040F48030491EC4E9021030462E70BDE8E9
:10342000F087010202D500F480320AE06068411C96
:1034300061600670E0680A2E40F48030E06006D0DB
:103440000022E16A6068814203D90B4602E0012252
:10345000F7E70346A7895B1B7F0503D4E7699F4213
:1034600000DDE2B1814200D80146E5620F1AC4E9ED
:103470000158002B09DD00E005E0224619462846E8
:1034800000F06AF808B14846C9E747B1A069E562AB
:103490006560C01BA061E06840F01000E060E0687B
:1034A000000208D56168A069E562491B08446560AF
:1034B000A0615046B3E73046B1E710B50146C26897
:1034C000900703D0900607D5886A0AE0FEF7D8FF78
:1034D00001210160881E10BD8B69486818440B6982
:1034E000C01A91F848301BB191F84910401A10BD2C
:1034F0001103FCD50028FADD401E10BD70B5C4686C
:10350000A50713D0650211D4B2F5807F09D0B2F5BA
:10351000007F06D0B2F5806F08D1012300F12401AD
:1035200006E05D1E6FF07F46B54201D3012070BDFD
:103530000161C361416024F470611143C1600020E6
:1035400070BD0000C16821F4001141F08001C1602C
:1035500000218160016070472DE9F04781461446E3
:103560000E464FF0FF383248D5685769054209D0FA
:103570003846A16902F0FEFD002811DB2C48C0434B
:103580000540E5602B4632464946384602F0F5FDD7
:10359000A16920F00042B21A11440028A16103D0B1
:1035A0002046FFF7CFFF4046BDE8F08770B50446E0
:1035B0000569C06A6168884200D80846E16821F45C
:1035C0002011E160C90312D5A84208D02246411B50
:1035D0002846FFF7C1FF10B14FF0FF3070BD00204B
:1035E000E562C4E90150E06820F48030E06000202A
:1035F00070BD10B50446C06820F02000E060A16AEC
:10360000A06988420DD02046FFF7D0FFE06820F483
:10361000405040F01000E060A06AA0612069E062C4
:10362000606044F24001E0688843E06010BD000043
:103630001000020010B542485421FFF7B5FC414884
:103640005421FFF7B1FC40485421FFF7ADFC3F493E
:103650003B483C4A3F4B08603D490A603A49196083
:10366000531C0365481C1065012008653B48344A1B
:1036700039A17844FFF778FA20B9384878440A38F5
:1036800000F08EF837482F4A35A17844FFF76CFADE
:1036900020B9344878440A3800F082F832482A4A7F
:1036A0002FA17844FFF760FA20B92F4878440A38F0
:1036B00000F076F840232248DC0000212246FFF784
:1036C0001DFF20B125487844543800F069F81D48A2
:1036D000224640230021FFF711FF20B12148784402
:1036E000543800F05DF81848224610230021FFF7F7
:1036F00005FF002806D01C487844BDE81040563825
:1037000000F04EB810BD104870B5006D20F00104F7
:103710000B48FFF79FFA0B48FFF79CFA0A48FFF7A0
:1037200099FA09E0206D20F001052046FFF792FA92
:103730002046FEF7D8FE2C46002CF3D170BD0000C9
:1037400070260008C42600081827000890250008E5
:103750009425000898250008720000003A5A0000DD
:1037600077000000295A0000025A00000346406812
:103770008C46002818BF88423CBF03464068F8D3F7
:1037800018681844884207D00CF1030020F00700A5
:10379000001D411A521A0146081D0A60FEF7A3BE19
:1037A00010B500F011F8BDE8104000F007B810B5F2
:1037B00000F024F8BDE81040AFF30080002801D0ED
:1037C00002F07FBC7047000010B5014602A000F077
:1037D0003DF8012010BD0000534947525452454462
:1037E0003A2052656469726563743A2063616E279A
:1037F00074206F70656E3A200000000010B501283B
:1038000005D0002103A000F021F8012010BD09A17E
:10381000F8E7000053494752544D454D3A204F7543
:1038200074206F662068656170206D656D6F7279B8
:10383000000000003A2048656170206D656D6F7270
:103840007920636F727275707465640070B5054697
:103850000C460A2000E06D1C02F0A5FC35B128786A
:103860000028F8D102E0641C02F09DFC14B120781D
:103870000028F8D1BDE870400A2002F094BC000096
:103880000549064A06480029074918BF1046054A57
:1038900018BF1146FEF792BD00000000007000083E
:1038A000007000080070000800E80F0880B504F000
:1038B000EDFCBDE8804004F0B7BB000020B1114929
:1038C000096809B1096A08470220704721B10D4A09
:1038D00012680AB1526A1047022070470949096804
:1038E00009B1096808470220704700BF22B1054BA3
:1038F0001B680BB19B69184702207047014908609B
:1039000000207047A06C0008C148016821B180B553
:1039100005208847BDE8804000207047BC4801680A
:1039200021B180B503208847BDE880400020704762
:10393000F0B59FB0002518B3CDE91C551A4D1CAF4A
:10394000044608223846294602F02EFDA8B938461A
:1039500002F0A9FD0646381D02F0A5FD02280CD193
:1039600068467021FFF720FB1048864205D1684663
:103970002946702202F018FD38B10025042000E02D
:103980000220C0EA05401FB0F0BD6846214602F0A3
:103990005BFD050C0104F4D19D48016809B10620C6
:1039A00088470020EDE700BF00C00010D4B3515A93
:1039B000C820704770B59EB00C464FF0FF311CAA6E
:1039C000CDE91C111DA902F007FD81B2060CA4B1BE
:1039D00099B96D4670212846FFF7E6FA1D992846E9
:1039E000702202F0E1FC08B1002106E068462146A1
:1039F00002F02AFD81B2060C19B141EA06401EB060
:103A000070BD834801680029EED007208847EBE7A6
:103A100080B548B14421FFF7C7FA7D48016809B174
:103A200008208847002080BD022080BD012070470B
:103A3000B0B5044602F076FC08B1022506E07448F1
:103A40000025002C046001D00020A0472846B0BD0E
:103A50002DE9FC470E464FF0FF3102240027002ECF
:103A6000CDE900113ED01546E2B302240027C8BBC1
:103A7000A868B8B301A96A46002002F0ADFCB146BF
:103A800004464FEA004ADDF8048059F8080F02F0B6
:103A900091FC00EB0807702002F08CFC38440021F8
:103AA00002F0EAFBA0EB0801BAF1000F06D1009882
:103AB000814203D9012444F6504713E0BAF1000FC4
:103AC00001D0270C0EE0404602F0FCFB10B10224AE
:103AD000002707E03046294602F08CFB0446070C1D
:103AE000000404D0C4EA074002B0BDE8F0877020AB
:103AF00002F060FC0246A868414602F017FC00286C
:103B0000E5D1D9E90001424AC2E90201116809B1CF
:103B1000012088470024E5E77CB50D464FF0FF31D2
:103B200014466A46CDE9001101A902F055FC8CB19A
:103B300000044FF002000ED1A16861B166687020E8
:103B400002F038FC0199284432460144A06802F092
:103B50002BFC10B1022002B070BD2D48016809B1E4
:103B6000042088470020F6E72DE9FE430D464FF07C
:103B7000FF31144601AACDE9011102A902F02CFC83
:103B8000D4B300044FF0020037D1A168A9B302F00A
:103B9000C1FB0646702002F00DFC67688046DDF828
:103BA0000890B7FBF6F000FB167090B11849781931
:103BB0000023D1E90212401A73EB020009D3384600
:103BC00002F0F8FB2168884203D8606802F0F2FB3B
:103BD0000746B7FBF6F000FB167068B908EB050066
:103BE00000EB0901B1FBF6F000FB161020B9A0684C
:103BF0003A4602F09BFB18B1022003B0BDE8F08307
:103C00000348016809B1022088470020F5E700BF9A
:103C1000F028000810B50446C0051CBF5D4810BD63
:103C200001F054FBB84812490160002144608160F2
:103C3000C160D948006890F8500090B100F03EFE95
:103C40000C4900FB011400F04DFE554901304FF4C2
:103C50007A7260430968B1FBF2F1B0FBF1F000F653
:103C600098014FF48070BDE8104005F0BCB800BF6B
:103C70000001001C60F59000E9480168B1F8AC0053
:103C80000A6AD1F8B0301044C058002809DB9E48B9
:103C90000122006849688A608A68002AFCD100F025
:103CA00005B80148704700BF0200500001466FF0A0
:103CB0007040084404281BD90020B1F1204F21D0C6
:103CC000184A914204BF4FF4A0007047D1B11029A7
:103CD00004BF16487047402915D0802916D0B1F589
:103CE000807F02D02B4881420AD10F4804307047B0
:103CF000DFE800F003060F1315004FF4A40070472F
:103D00000948FD30704709480130704706480330C4
:103D10007047064800F50030704703487047024876
:103D200001307047090000A002005200010050005D
:103D3000B0B50546C00524D10C4611B301F0C6FA52
:103D40007148154901604FF4807141608560C4601D
:103D5000D148006890F84F00A8B100F0AFFD0F49BE
:103D600000FB011400F0BEFD0D4901304FF47A72E2
:103D700060430968B1FBF2F1B0FBF1F000F561714D
:103D800002E00448B0BD00214FF48070BDE8B040AF
:103D900005F029B80600520000010006808D5B0086
:103DA000A4250008BC4A03291268D2E90532A0EB19
:103DB00002006FF00F0202EAD000184402D8006837
:103DC000C90004E06FF01F02406802EBC101C84067
:103DD00000F01F00704700BF10B503F001030F246F
:103DE00002F00F0203FA01FC012303FA01FE03684B
:103DF00023EA0E0343EA0C030360F14B1B6893F8BC
:103E000079E08B009C409A405EF800C02CEA0404E4
:103E100022434EF80020029ABDE8104000F034B86A
:103E200080B5E74B890002F00F021B6893F879E038
:103E30000F238B4002FA01F15EF800C02CEA030365
:103E400019434EF8001080BDDD4B042902F01F021B
:103E50001B68D3E905C3A0EB03006FF00F0303EA6F
:103E6000D0006FF01F03604403EBC10328BF043090
:103E7000D0F800C038BFCB001F219A4099402CEAEF
:103E80000101114301607047E84B042902F01F0251
:103E90001B68D3E905C3A0EB03006FF00F0303EA2F
:103EA000D0006FF01F03604403EBC10328BF043050
:103EB000D0F800C038BFCB001F219A4099402CEAAF
:103EC0000101114301607047F14A1268D2F8B02035
:103ED0001258B2F1FF3FCFBF124889B241600020B3
:103EE000704700BFEA4A1268D2F8B0201258B2F107
:103EF000FF3FCFBF0B48C06808600020704700BF7D
:103F0000014A012100F002B8886C00080368B3F18F
:103F1000FF3FC4BF0348704789B2C2608160002080
:103F2000704700BF01008A0076490A6802B17047F5
:103F30000860704770B5734C4FF02C0CDEB200FB7C
:103F40000CFE246800FB0C4044F80E601C0CDFF8EB
:103F5000B0CD8460C3F30724C3EA23434460DCF894
:103F60000050D5F820E0B5F8AC5006FB05E6066138
:103F7000DCF80060366A06EB441606F580554561AC
:103F800041F208057351C0E90721002181610499BC
:103F900009B10988818170BDB86B00087CB5044601
:103FA000002001906069C668B6F5803F24D34FF6C3
:103FB000FF7126EA01010160B549006809682069BE
:103FC000D1F8B0100958B1F1FF3F15DC01A9FFF796
:103FD00089FF08B100250BE00198E3690268D1B2BE
:103FE000150C8B4204D9226A52F8211001B188477E
:103FF00020692946FFF768FFB0B268B161690860BF
:104000000868606A18B180470020606202E0A06A18
:1040100000B180470020A061606900687CBD00BFDE
:10402000B86B000837492C22096800FB0210FFF723
:10403000B5BF00BF2DE9FE43954E0446006AD4E9A2
:104040000932A78AE16A3668B68ED4E90398A56971
:1040500037440295ADF8047001AF0097FFF76AFF8F
:10406000002000210022434600904846FFF762FFEF
:10407000216B384600F004FDBDF90400002808DB80
:1040800000F01F010122400902FA01F1034A42F83F
:104090002010BDE8FE8300BFB86B000800E100E01F
:1040A000F0B5184F2C24D7F800C000FB04C5164803
:1040B000D5F810E0BEF1000F0DD001FB04C60330AF
:1040C000344654F8187F37B96F687568DEF80060B9
:1040D000B6F1FF3F00DDF0BD4FF48036012006FA57
:1040E00005F51688B84080B235431560CEF80C202F
:1040F000012222602C2201FB02C14B62CEF8080093
:104100000020F0BDBC6B000804028A002DE9F843D2
:10411000544D074689461B4C2868C6683168B94229
:1041200005D9B9F1000F05D04FF0000806E004F101
:10413000021422E0FEF79CF9804628680168B1F17C
:10414000FF3F01DD013412E007F01F010122736817
:1041500002FA01F17A0953F822700F421EBF27EAD2
:10416000010143F8221000240021FFF7ADFEB9F150
:10417000000F02D14046FEF77FF9204601B0BDE8AE
:10418000F08300BF0201880059B952B940490023A9
:1041900009680A6AB1F8AC1001FB002031490860D7
:1041A00008E0054B31B12AB1044BC3E900121946AE
:1041B00000F008B81846704703018A0088250008F7
:1041C000B86B0008F8B5184E0C460146002C06F1F5
:1041D000020026D02E4A126892F82E308B4220D947
:1041E0002368DF061DD1106AB2F8AC201D4F02FB18
:1041F0000105D9083D606068FEF7D6FE284600211B
:10420000FFF762FE386800212246FFF77FFE002894
:10421000304606D138680021FFF756FE002818BF47
:10422000304601B0F0BD00BF01018A00B86B000844
:104230000C490968C9680A6882429CBF0A487047ED
:104240004968420900F01F0051F822100122824003
:104250000648114200F1010004BF40F20010C0F214
:1042600088007047C06B000804018A0000018800C4
:1042700007490860704700BF05490968096901EBF3
:1042800080204FF48041405800F00F00704700BF7D
:10429000B86B000810B5D0F808436FF35F24944260
:1042A00088BF1446224600F002F8204610BDD0F820
:1042B00000331B070DD404E0D0F84033013A01F875
:1042C000013B002AF8D106E0D0F84033013A21F84A
:1042D000023B002AF8D170470268082918BF02295A
:1042E00005D1106840F00040106000207047034680
:1042F0001148012918BF704759680B68DB0704BFD4
:104300004B685FEAC37300D07047D2F808C2D2F896
:1043100008326FF35F2CC3F3C0331CEB030F04BFF1
:10432000D2F808335FEAC353EED180B5104600F0EF
:1043300005F8002080BD00BFFF0042000268002990
:1043400022F00042026004D0002048600860086249
:10435000C862704708694A69904222BF4969401A99
:1043600070474A69C9690844801A70475A4B002847
:1043700000F0B080002900F0AD802DE9F04191F807
:1043800000C0BCF1020F01D18B7F33B14B685C1EC2
:104390004FF4001363F31F1401E04FF000740B7F20
:1043A000002B4FF0407318BF44F48034D1F808E07C
:1043B00003EA0C63BEF1090F38BF44F400640460E3
:1043C00003644B7B8C7B0D7C4E7C013B03F0070828
:1043D00064F305184C7F4346002C444618BF403414
:1043E0008F7C002F18BF04F580644FF40077002DF8
:1043F00018BF04F58074002E18BF44F40074CD6A11
:104400004FF4702606EB054505F470252C438464B3
:10441000ACF10204CE7BB4FA84F40D7B6409002E67
:10442000AEF1010608BF670206F00F06002D18BFA7
:1044300006F580763744BCF1010FC0F800738F6930
:104440000D7D67F31745C0F8105308BF03F580735F
:10445000CF7F002F08BF43464364BCF1010F08BF64
:1044600006F58036C0F8006291F83030C0F80433A9
:1044700091F8203091F8217091F8285091F824603B
:104480005B06012F40F66D3708BF03F18073012DE5
:1044900008BF03F58033002A3344036591F83830B0
:1044A000C0F804324B6B03EA0703C0F8C83F40F280
:1044B0007373C96B01EA03014FF00003C0F8881F52
:1044C000BDE8F04106D0536013601362C2E90233C5
:1044D0001363D362184670470160AA002DE9F041CA
:1044E0000446D0F8000E0D46000740F1C180D4F814
:1044F000CC0F10F448700AD0696801436960C4F8B1
:10450000C00FD4F8C00F296B09B110208847D4F828
:10451000CC0F000509D5686840F4006068604FF46E
:104520000060C4F8C00FD4F8C00FD4F8CC0FC00797
:1045300000F09180EA6922B32668A9692046FFF756
:10454000A9FEE9692A6A02442A620A1A31054FF073
:104550004001EA6158BF2021002A40D0AB69D4F85D
:1045600000738A42C7F3C00700FA07F01844A86135
:104570006CD2D4F80403511E61F30700C4F804039D
:1045800064E0A868002861D020684FF0400800056A
:1045900058BF4FF02008D4F808032F696FF35F204D
:1045A000464219E0E8687A1C6969171A18BF17466D
:1045B0008F4206D1296B09B1082088476869874274
:1045C0002AD0D4F84003D4F8001301360907A968AB
:1045D0004CBF21F81700C855002EE3D123E0A8688E
:1045E00068B1E868884238BF0146481ED4F8041311
:1045F000090A61F31F20C4F80403012000E0002031
:10460000C4F8C80F6868296B20F0010000296860B1
:104610001CD00420884719E00020002FC4F8C80FE0
:1046200000D1EF68013F2F612946EE68FFF792FE47
:10463000301A40450AD2D4F80423411E0028C9B2DA
:1046400022F0FF0218BF0A44C4F804230120C4F872
:10465000C00FD4F8C00FD4F8CC0F400708D5296B91
:1046600009B1402088470420C4F8C00FD4F8C00F17
:10467000D4F8000E400740F18580D4F88C0F10F478
:10468000A0600AD0296801432960C4F8800FD4F8DB
:10469000800F296B09B120208847D4F88C0FC00700
:1046A00050D020688027000558BF4027D4F800125A
:1046B000A86A01F00808022812D3E862421E2046C8
:1046C0006E6A314600F095F84146B8F1000F18BF08
:1046D000012100FA01F131446962A96A081AA8624D
:1046E000D4F80812012828D16FF35F218F4224D01B
:1046F0000020B8F1000FA862686A14BF0688067827
:10470000FDF7B6FE4FF40071C4F84062C4F8801F94
:10471000D4F8801FFDF7B0FED4F8880F40F4007085
:1047200020F00100C4F8880F2868296B40F00200CF
:104730000029286001D0012088470120C4F8800F9B
:10474000D4F8800FD4F88C0F80050CD50020C4F865
:10475000880F2A68296B22F0010200292A60E8628A
:1047600001D002208847D4F88C0FC00658BFBDE89E
:10477000F081296B09B1802088471020C4F8800F90
:10478000D4F8800FBDE8F08109B302B380B5D0F84A
:1047900000C04FF0000EC3F810E0C3E90212C3F8E6
:1047A00014E05FEA0C514FF0400158BF20219142C4
:1047B00088BF1146D0F804230139120A62F31F2181
:1047C000C0F804130121C0F8C81FBDE8804070473D
:1047D000026812054FF0800258BF4022D0F808321C
:1047E0006FF35F239A420EBF0020C0F840120120F1
:1047F000704710B503681B054FF0800358BF402376
:10480000D0F808426FF35F241C1B944288BF144603
:10481000224600F002F8204610BDD0F800321B07F7
:104820000DD404E011F8013B013AC0F84032002AEF
:10483000F8D106E031F8023B013AC0F84032002AD4
:10484000F8D17047B04800680168D0F88400425839
:1048500022F47F4242507047174A02EB8001096CF4
:1048600001F00701042902BF52F82010082060F36C
:104870005F1188B2704700BF0246A348006890F8F5
:104880003A307E48934216D9052905D20A4801F0EC
:10489000070100EB82000CE0A1F58073132B88BFA9
:1048A000704701F01F00044941F8220001EB82002B
:1048B00004210164002070470003264092480068EC
:1048C0000168D0F880004058000E70478E480123E0
:1048D00000680168D0F88000425863F31F624250BC
:1048E000704700BF884800680168D0F880004058D1
:1048F000C0F30720704700BF834800680168D0F804
:104900008000425822F47F4242507047F8B5414D32
:1049100004462646E86840F00040E86006E010F0F3
:10492000040006D1012000F017F9013E2869002E8D
:10493000F5D1A8680221002C61F31D70A86000D099
:104940001EB1286840F000402860002706E010F003
:10495000010006D1012000F0FFF801372869BE42AE
:10496000F5D1F01BB4FA84F118BF012049090143C5
:10497000A868012903D140F04050A8600BE0022252
:1049800062F31D70A860286820F000402860E86885
:1049900020F00040E8600348002918BF002001B063
:1049A000F0BD00BF02004A001A490A68002A2FDB46
:1049B00080B50368C2796FF39F43002A18BF03F1E3
:1049C00080730B60838802896FF35F3362F318434F
:1049D0004B60124B828990F80EE003EA022C837A36
:1049E000C27A03F00F0362F3071303EB0C020EF01D
:1049F000030342EA03728A60CA68837963F30A2276
:104A0000CA60CA68008A60F318420020CA6080BD8C
:104A1000014870478005264003004A0000FF1F0040
:104A200080B584461548032915D8B54BD3F800E066
:104A30009EF83D3063450ED909B9082A0CD30129E7
:104A400001D1102A08D3022901D1042A04D3032951
:104A500008BF002A00D080BD9EF86D0001F0030160
:104A600001FA00F09EF86C1011400843DEF80810BF
:104A700001EB8C01C1F8000C002080BD01004A0050
:104A8000B0B5D8B1B0F90020174D0E4C02F00F03AD
:104A9000B2F1FF3FA3F104032B4403F11003C8BF9D
:104AA0001319027952011A70104B2A689A4203D1E5
:104AB000B0F9000000F008F80020B0BD0048B0BD1B
:104AC0000100560000E400E000F110020648074B28
:104AD0000068984219BF064850F8220053F8220097
:104AE00043F82210704700BF08ED00E000200008E6
:104AF000002000100120FFF795BA00008048012136
:104B00000068406881607047B86B0008F8B50446DB
:104B1000B0F5004F28BF4FF4004047F6FF710D4E2F
:104B2000C0432746204400F5004020EA010504E088
:104B30003068FDF795FCA7F50047B7F5004FF7D8AB
:104B40000349601B09684843BDE8F840FDF788BC8D
:104B5000B0250008B4250008024909784843FDF74C
:104B60007FBC00BF9C250008026823490A60426898
:104B70004A6082688A60C268CA6002690A614269E2
:104B80004A6182698A61C269CA611C4A53680B62C0
:104B900093684B6213688B621369CB6252690A6334
:104BA000F1EE102A12F0900F08BF00F037B8026A39
:104BB0004A63426A8A63826ACA63C26A0A64026B8F
:104BC0004A64426B8A64826BCA64C26B0A65026C77
:104BD0004A65426C8A65826CCA65C26C0A66026D5F
:104BE0004A66426D8A66826DCA66C26D0A67006E49
:104BF000486700F013B800BF886F000824ED00E09C
:104C00000448054900680968090618BF40F4802077
:104C1000704700BF0008264004002640FEE77047AA
:104C200005484FF00041016001680448B1F1FF3FC1
:104C3000C8BF0020704700BF48002740030046005F
:104C400010B5642200284FF0000318BF19228A42D1
:104C500038BF0123E14A0028D2F800C0BCF8A420E4
:104C6000DCF800E05EF8024024F003041C444EF837
:104C70000240DCF800E05EF8024024F440744EF894
:104C80000240BCF8A620DCF800E05EF8024024F008
:104C9000030423444EF80230DCF800309C5824F41E
:104CA00040749C5006D011291BD30220222938BF02
:104CB000012017E09CF85100884212D29CF8520063
:104CC000884217D29CF85300884215D29CF85400B1
:104CD000884213D29CF8552004208A4238BF052010
:104CE00000E00020DCF804100A6822F00F021044F3
:104CF000086010BD0120F5E70220F3E70320F1E78B
:104D0000B86B000838B102280CD0012814BF06483F
:104D100000F0B2B870476D48016841F4700101605D
:104D20000020704700F08CB8FF00420070B50546C7
:104D300000F000FA10B3FDF79BFB04461D481E4926
:104D4000F5B11E4A1E4D12680A600B21467828688C
:104D500061F3040028600320FFF7FEFE00F068FA0C
:104D6000286866F3040028600720FFF7F5FE00F0CE
:104D7000FFF9002000F0D2F8054613E00C4D14E0D6
:104D800000220A600678012000F0C8F8054648B9FC
:104D900000F01EFA0A48016866F30401016000F0A1
:104DA0006FFA00252046FDF767FB284670BD00BF5F
:104DB0000300420040070016307F264010180016FE
:104DC0001CFF264080B540B3C16831B3016821B3F0
:104DD0000179514A02EB810CDCF80810F9B18E46DA
:104DE00007E04B693BB1017E1A7E8A4298BF9E461E
:104DF00019468142F5D181420FD0DEF81010A1B9D9
:104E00009EF81810027E8A420FD20021C0E9041ECB
:104E1000CEF81000CCF8080010E0002080BD002182
:104E2000CCF80800C0E9041108E0DEF814100029ED
:104E3000C0E904E100D00861CEF81400012080BD73
:104E400010B5224C206880065CBF624810BD216806
:104E50000848090258BF00F18070216808432060AB
:104E60000120FFF779FE206840F08040206000209C
:104E700010BD00BF0000041610B5144C1248216884
:104E800000F1807009025CBF4FF6FF70CAF6FB406C
:104E90002168084020600820FFF75EFE6FF0630184
:104EA0002268084619B1411CB2F1FF3FF8DC40B15D
:104EB000206820F0806020600120FFF74DFE002078
:104EC00010BD034810BD00BFFFFFFBAC0000264033
:104ED00002004200A0B101790F4A02EB81010831C2
:104EE0000A46136863B103F114028342F9D10A68D8
:104EF000824207D0D0E904124A61406930B906E025
:104F000000207047406920B1086000210161012044
:104F1000704700200860FAE7A0280008F8B5934E13
:104F200005463078002814BF37782127B6F80B00E3
:104F300038B1B6F80B00A0F58070B0FA80F04409E3
:104F400000E001240E20FFF797F9224A18B184B13E
:104F5000232F18D22AE064B1222F14D8DA484FF256
:104F6000180100684068425865F3186242500022F8
:104F70001CE019481446002D00F1020204BF012272
:104F8000C0F6004205E01446154A002D08BF06F1A0
:104F9000D052CD480068B0F8AC10006A4518012125
:104FA0002846FEF7B3FF0028224602D0104601B083
:104FB000F0BDC5480068D0F8B00029580029FCDBD6
:104FC000E86800F07F40B0F1204018BF104601B003
:104FD000F0BD00BF040042000100000CB86B0008E7
:104FE000010100307047000080B5FDF741FA064925
:104FF0000A6842F470020A60BFF34F8FBFF36F8FED
:10500000BDE88040FDF738BA88ED00E000EB811084
:1050100000214FF0FF33C0F80011C0F80811C0F8AC
:105020000C31C0F81031C0F81431C0F8183140F21A
:10503000FF33C0F824313F23C0F828310323C0F8E0
:105040003031C0F83411C0F83811916C01311CBFF7
:105050001021C0F82011704703463548002B66D058
:10506000002A64D010B503EB8114D2E9011ED2E905
:10507000033C090203F00300002B89B26EF3924156
:1050800041EA00400CF0070140EA0160117F08444A
:10509000C4F8000103D0012B14BF01231368BCF135
:1050A000000FC4F8083105D15069C4F80C019069AB
:1050B000C4F810011068C4F81401916C481C18D091
:1050C0000801916A136BD2F838C0D2F840E0C0B240
:1050D00001F00F01084403F00F0140EA01200CF039
:1050E0000F0140EA01404FEA0E3189B20844C4F88A
:1050F0002001506AD16A536BD2F83CC000F0030023
:1051000061F3051003F0030140EA01204FEA8C111E
:10511000C9B20844516C01F0030140EA8100C4F8AF
:105120002401106AC4F838010020BDE8104070471F
:105130000100B60010B50D4CB4F80B0030B1B4F856
:105140000B00B0F5807F1CBF012010BD0E20FFF7C3
:1051500093F8227800211AB12278222A88BF0121EF
:10516000B0FA80F04009084310BD00BF01000016EE
:105170005348018819B10088B0F5807F12D1C74823
:105180004FF0030C00680168D0F8942053586CF37A
:10519000030353500168D0F8980042586CF303029F
:1051A00042507047B0B5094DBC4A2968126813686F
:1051B000D2F89400C458214341F44071C15028688A
:1051C0001168D2F898205050B0BD00BF20180016CA
:1051D0003B48018819B10088B0F5807F12D1AF48F3
:1051E0004FF0020C00680168D0F8942053586CF31B
:1051F000030353500168D0F8980042586CF303023F
:1052000042507047B0B5094DA44A696812681368E6
:10521000D2F89400C458214341F44071C150286829
:105220001168D2F898205050B0BD00BF4418001645
:105230002348018819B10088B0F5807F0AD19748CA
:10524000042300680168D0F89400425863F30E32DA
:1052500042507047B0B5094D904A296812681368EA
:10526000D2F89400C458214341F44071C1502868D9
:105270001168D2F898205050B0BD00BF4C180016ED
:105280000F48018819B10088B0F5807F0AD18348A2
:10529000062300680168D0F894205058114463F345
:1052A0000E300BE007487D49006809680A68D1F8AC
:1052B00094108B581144184340F4407008607047B4
:1052C0000C00001618180016B86B000870B55B4D7E
:1052D000D5F8801001F00F0245EA8201096C01F057
:1052E0000703042B05D85649DFE803F00F03030337
:1052F0000500544909E055F8221001F01F034FF44E
:10530000FA41112B08BF4FF400411AB3013A012AA8
:105310006BD805EB8203D3F8404305F5407353F88F
:10532000220053F8226004F0010C00F0405E16F0F9
:10533000405F43D053F8220000F04050B0F1805459
:1053400018BF0124BEF1405F3ED08CF00100204325
:105350004BD139E0D5F89022D5F88832D5F888427B
:1053600002F0010203F0405314F0405F0FD0D5F873
:10537000884204F04054B4F1805418BF0124B3F1C2
:10538000405F08D082F0010222432ED103E0B3F146
:10539000405F00D04AB3D5F88022D5F884326FF34D
:1053A0005F336FF39F42B1FBF3F15143D5F8802295
:1053B000C2F300620132B1FBF2F116E0BEF1405FD0
:1053C00002D0BCF1000F10D053F8220000F07F0093
:1053D000484353F82210C1F30421B0FBF1F053F815
:1053E0002210C1F30441B0FBF1F1D5F88000174A57
:1053F000174C0123C0F3011021FA00F01249886014
:105400001268266853FA92F203EB1663B0FBF2F2CD
:10541000B0FBF3F04FF47A730A614A60C86002F29D
:10542000E730B0FBF3F00B4B4861C0031A440A4B62
:10543000B2FBF3F20A70886170BD00BF0003264022
:1054400000127A0000366E019C25000808002040FA
:10545000081020403F420F0040420F0080B50D4829
:10546000FEF706FFFFF7BEFDFFF730FF0320002128
:105470000022FEF789FE0848FEF756FD074800683F
:1054800090F84D0020B10648BDE88040FEF7D2BD3F
:1054900080BD00BFE090001008290008B86B00082C
:1054A000D48F001080B500F03DFFB0FA80F04009C5
:1054B00080BD00F02BBF0000F8B5184D04467021E8
:1054C000284600F0C3F80146284405F58067B84235
:1054D00006D2284600F0F6FED8B926463D4601E041
:1054E00004F580662846314600F0B0F80C4928449F
:1054F000884204D82846314600F0E4FE09E0094914
:105500004FF47023421808482146FDF7B1F84FF0D8
:10551000FF30B0FA80F0400901B0F0BD00C00010CB
:1055200000C40F10003CFFEF649500102DE9F04F10
:1055300085B081B10F46834600F0ECFE3549044644
:10554000B1FBF0F000FB141038B133482246FDF7F0
:105550008FF830BFFDE7002058E030484FF00009D9
:10556000DFF8BC8007F108050027CDF80C90049007
:105570004FF48040B0FBF4F060430290601E019055
:10558000012016E00398D8B3019A22491044394407
:10559000B0FBF4FA04980AFB04F200F0C7FE296895
:1055A0000646384603F0ECF8B6FA86F00AFB0477B4
:1055B0004009010628D0D5E90021BB1A79EB010387
:1055C00022D24FF0FF30C8F80000D01B029A61F1E0
:1055D0000001131A79EB010138BF1046039002AAAB
:1055E00058463946FEF782F9000403D0D8F8000087
:1055F00004E030BFD8F80000411CFAD00428C1D024
:1056000008A0FDF79BFA002000F0010005B0BDE8FE
:10561000F08F00BF00C40010D0940010B42A00081E
:10562000642600085B455252205D2041524D5F5573
:1056300043505F526561642072657475726E656473
:1056400020302062797465730D00000070B5044647
:105650000E180546B54224BF281B70BD284600F031
:105660005DFE0544F6E70000B0B505460EA00C4609
:10567000FDF764FAA068FFF71FFF90B1204600F025
:1056800093F970B128462146FFF750FF48B10EA0AC
:10569000FDF754FA204600F029F8B0FA80F04009EE
:1056A000B0BD0020B0BD00BF5B424F4F545D2063D2
:1056B0006F707953746F7265644170706C69636167
:1056C00074696F6E0D0000005B424F4F545D2056B1
:1056D0006572696679206E657720616374697665A5
:1056E000206669726D776172653A0D002DE9F04FA1
:1056F000A3B080463DA0FDF721FAB8F1000F67D0B6
:10570000404600F03BF9002862D0464656F8080FA4
:105710007168084360D03D4D3D4C3EA0A5F58061C9
:10572000A04744A02946AB46A047D6E9002348A09D
:10573000A0470DF12009484602F032FF48460021FB
:10574000002402F032FF68462021FDF72DFC376867
:10575000DFF81CA319E0D7B13D46B7F5804FABEB9E
:10576000070028BF4FF4804531682A46014450465F
:1057700000F01AFE0446484651462A4602F06CFFE5
:1057800031687F1BC81B02F0FBFF002CE3D008AC84
:105790006D462046294602F06DFE204602F0FAFED4
:1057A00008F11004294620222046FDF787FA064614
:1057B000204603F017F8284603F014F88EB12AA00B
:1057C000FDF7BCF9204603F00DF8684603F00AF82F
:1057D000012023B0BDE8F08F2B48FDF7AFF9022080
:1057E000F7E72848FDF7AAF90020F2E75B424F4FA0
:1057F000545D20636865636B4163746976654170CD
:10580000706C69636174696F6E0D000000C40010F4
:10581000712600105B424F4F545D206865616465DE
:10582000722073746172743A203078253038580DC4
:105830000A0000005B424F4F545D2061707020737E
:10584000746172743A203078253038580D0A00009F
:105850005B424F4F545D206170702073697A653AE6
:1058600020256C6C750D0A005B424F4F545D205330
:10587000484120436F6D706172653A204641494C42
:105880000D0A0D0012960010E09500102DE9F04F62
:105890009FB00025002966D0834635480C460DF19F
:1058A0000409D0E9001280681E904846CDE91C1218
:1058B00002F076FE4846002102F077FE2D4E00945D
:1058C00008344FF0FF380DF1700A002726E01C9ACB
:1058D000C91BC6F8008060F10000531A75EB000088
:1058E00038BF11461D91524658463946FDF7FEFF16
:1058F000000402D0306803E030BF3068411CFBD0A8
:10590000042812D11D9A82B11E99484602F0A4FEC5
:105910001D9821680744384602F032FFD4E9001090
:105920007A1A75EB0002D2D302E013A0FDF706F954
:105930004F4D01AC2046294602F09CFD204602F066
:1059400029FE00982946202200F110042046FDF788
:10595000B5F938B1204602F045FF454802F042FF54
:10596000002500E0012528461FB0BDE8F08F00BFEC
:105970006C8E0010642600080D00000010B580B188
:10598000E74C4FF0FF312160FDF798FF000408D18C
:1059900000E030BF2068411CFBD0062804BF012076
:1059A00010BD002010BD00BF7FB5E0B3064600F07B
:1059B000B1FC00F16F011F4DB1FBF0F101FB00F4F0
:1059C00028467021FFF742FEB4F5804F08D8024602
:1059D00084420DD928482146FCF74AFE30BFFDE736
:1059E00015A021464FF48042FCF742FE30BFFDE790
:1059F0001F482146FF22FDF7ADFA1E48D0E90012EC
:105A000080680390CDE9011201A9304600F0F2FB55
:105A1000000408D10298702805D11548294622466D
:105A200000F084FC01E04FF0FF30B0FA80F0400954
:105A300004B070BD00C000105B455252205D20488C
:105A400065616465722070726F6772616D20736941
:105A50007A652025752062696767657220746861C0
:105A60006E206275666665722025640D0A0D0A0057
:105A7000B42A0008788E0010239500102DE9F04F0D
:105A8000A9B00DF1580848214046FDF78DFA04AC45
:105A900048212046FDF788FA7DA0FDF74FF8204603
:105AA000FFF724FE854D00222B6893B1696881B110
:105AB000D3E90064DDE904277C405640264307BF54
:105AC0000A780132C3E9002700220A7004AC696831
:105AD0000A78022812D098B9022A13D804F11000CB
:105AE00002F080FEDDE904237F48FCF7C1FDDDE91B
:105AF00004014FF0010BCDE916010DE070A007E0A5
:105B0000032A04D385480321FCF7B2FD02E077A005
:105B1000FDF714F84FF0000B08F11000804E04F16F
:105B2000300A08F1300904F110074FF0FF350290F8
:105B300008F1080004F1080801908BF001000390BF
:105B400001205CE04FF0FF30214630600020FDF77F
:105B5000BDFE000402D03068584A05E0574A00E014
:105B600030BF3068411CFBD0072855D1106848B1C0
:105B7000D0E90003DDE9041253404840184318BF40
:105B8000012002E0DDE904120120DDE91634591A92
:105B900074EB020136D203990843012832D1D8E9C7
:105BA000000108432ED061480021FCF761FD04ACE0
:105BB00000202146FFF76AFE80B3384602F012FE4D
:105BC000DDE904234848FCF753FDD8E90020D2F56D
:105BD00070214FF00001814125D3DDE90413CDE9A7
:105BE00016130199C1E90020029839462022FDF7D9
:105BF000B0F89AE80F00002589E80F000020C007E0
:105C0000A0D116E048480021FCF732FDDDE904236D
:105C10003548FCF72DFD0CE0424800E044480021E7
:105C2000FCF726FD05E0434800214FF47023FCF704
:105C30001FFD681C18D0404C404F012016AE05E0F7
:105C40003846FCF77BFF4FF0000B0020C00719D04F
:105C500020462946FCF70CFD28463146FFF704FD97
:105C60000028EDD0364803E0BBF1000F05D03648E0
:105C7000FCF764FF4FF0010B04E03248FCF75EFFD5
:105C80004FF0000B0BF0010029B0BDE8F08F00BF12
:105C90005B424F4F545D20416374697665206669AD
:105CA000726D7761726520696E7465677269747967
:105CB00020636865636B3A0D00000000002900084E
:105CC0005B424F4F545D204163746976652066697D
:105CD000726D7761726520736C6F742069732065D3
:105CE0006D7074790D0000003D9800105B455252B4
:105CF000205D20416374697665206669726D776105
:105D0000726520696E74656772697479206368656D
:105D1000636B206661696C65640D0000D8970010A4
:105D20006426000854980010AD97001022970010C8
:105D30007C9700100C9800104D9700106E98001082
:105D40008D980010B2980010D2980010B0B50C4693
:105D50004542FCF795FB05606148002140F824109E
:105D6000B0BD00BF10B50F4800F072F95C480324C5
:105D700003E050F8241061B101340F2CF9D9FCF77D
:105D80007FFB18210160074800F062F94FF0FF34F3
:105D900006E04FF0FF3140F82410024800F058F9B7
:105DA000204610BD882A00083AB110B5A7480C4615
:105DB00002F0BEFD2070012010BD0020704700BF22
:105DC0006FF01C0070476FF015007047002070479F
:105DD000F8B59E4E14460D46002704E0E95D3046B6
:105DE00002F028FE0137BC42F8D1204601B0F0BDD8
:105DF0000120704770B50446084808302060084804
:105E0000006840B9914E1D46304602F0C5FD30464F
:105E1000294602F07BFD204670BD00BF4C9000106B
:105E2000846D0008FCF75FBB6FF0150070476FF0E2
:105E30001800002918BF002070476FF01500704748
:105E40000168896A084700207047016801220B69D0
:105E50000021184701688969084703681B691847CA
:105E60007047016800220B69002118476FF0150088
:105E70007047704770B50F2801DD002519E0184EF6
:105E80000446022856F8205013DC681C11D1204625
:105E900000F02CF8054650B9204600F029F80546D8
:105EA00028B9104D2879BFF35F8FC00703D046F89B
:105EB0002450284670BD0B4D281D00F0D5F8002851
:105EC000F5D0084D08494FF4A0224FF4E13328469D
:105ED000FFF790FF287900F0FC0001302871E6E719
:105EE000082600080028000801000500002070476F
:105EF00000207047007B7047F8B51A4D04460E46E7
:105F000005F1080000F0A4F80DE0AF6857B138467D
:105F1000FCF700FFB04205D1384621463246FCF777
:105F2000CDFE88B104352D68002DEED1072E05D1A8
:105F30000DA021460722FCF7C1FE50B109480830E8
:105F400000F086F800250AE00648083000F080F8E6
:105F500005E0044C04F1080000F07AF86568284672
:105F600001B0F0BD7827000864656661756C740047
:105F700010B5044600F008F820B16068002818BF8A
:105F8000043810BD002010BD406838B180B5FFF75F
:105F9000B1FF0138B0FA80F0400980BD00207047A1
:105FA00010B5044600F00DF820B16068002818BF55
:105FB000043810BD002010BD4068002818BF012023
:105FC0007047406830B180B5FFF794FFB0FA80F0B9
:105FD000400980BD002070470068704770B50E46CC
:105FE000002504460CA1C0E900553046FCF758FED8
:105FF000304402E02F2A06D0013541192160425D6C
:10600000002AF7D101E0013121602946FFF774FF32
:106010006060204670BD00BF2F000000B0B50D4687
:10602000C80701D1002406E0084802F013FD044629
:10603000002818BF0124E80605D5044802F011FD28
:10604000002818BF10342046B0BD00BFA86C00085F
:106050000146006808B9086800B1704701F10800FE
:106060000860704701207047017801F003010129A1
:1060700004D0017801F00302012A01D10020704709
:1060800041F00201017001207047F8B51E46144628
:106090000F46054601F049FC781C08BFF8BD2846AC
:1060A000314601F081FC2846012101F03DFC2846E3
:1060B0002146BDE8F84001F055BC02F0E8B800F018
:1060C00037BAFEE710B5FFF7D5FE40B10168896A1F
:1060D0008847B0F1FF3FC8BF10BD444200E009242B
:1060E000FCF7CEF904604FF0FF3010BD01F0CCBEDC
:1060F000B0B50D461C490446FCF77EFF78B11B493C
:106100002046FCF779FF68B119492046FCF774FF77
:1061100058B1207840280ED1D4F8014009E0002081
:10612000002404E00120012401E002200224FFF702
:10613000A1FE2046B0BDA80707D468074FBF0120C5
:106140002807092101EAE07000E0022015F00C0F99
:1061500018BF00F5007005F0040140EA0121204657
:10616000BDE8B04002F0D0BAB0900010B790001077
:10617000A8900010002201F03FBF10B5B2F1FF3F20
:1061800007DD144662B1224602F015FE002808DA47
:1061900003E0FCF775F9162101604FF0FF3010BDE8
:1061A0000020201A10BDE0B58DF807000DF10701A1
:1061B0000120012202F0FFFD8CBD000070B50C4EE5
:1061C0004FF0FF340FE0027801395440082207E015
:1061D00086EA5403E507A2F1010208BF63081C46E2
:1061E000002AF5D101300029EDD1E04370BD00BF98
:1061F0002083B8EDF8B505460220BDB30C46A9B31F
:106200002068702831D3A06870217026FCF7AAFEA0
:10621000A0681749174FB847A06802210430B84753
:10622000A068D5E90023083000F06BF9A068D5E933
:106230000223103000F065F9A06805F1100120225A
:106240001830FCF786FDA06805F1300110225830A7
:10625000FCF77FFDA0686C21FFF7B0FF0146A06846
:106260006C30B8470020666000E0022001B0F0BD4D
:10627000D4B3515AF1640010F8B5564F04460D4698
:10628000384601F01AFB0646384601F014FB30444C
:10629000A04215D9A64212D24E4F002004E0384643
:1062A000314601F0FCFA0644A642F8D33146002DEF
:1062B00018BF091AA64208BF3146084600E030461A
:1062C00001B0F0BDF8B50D4601210446FFF7D4FF3B
:1062D000064628190021FFF7CFFFA64211D13D4FF6
:1062E000054600260AE076B93846214601F0C8FA8C
:1062F00006463846214601F0D2FA0444AC42F2D3B5
:1063000001E04FF0FF36304601B0F0BD314801F0FA
:10631000BFBA00BF2F4801F0C0BA00BF01462D48E8
:1063200001F0BDBA2B4801F0CABA00BF2DE9F8430D
:1063300020B3284C064691460D46204601F0BDFA92
:106340000746204601F0B7FAAF4217D801464FF092
:10635000FF30494514D3394409EB05028A420FD86E
:106360001C4801F09AFA0746B5FBF0F000FB175005
:1063700020B9B9FBF7F000FB179020B14FF0FF30C8
:1063800001B0BDE8F083DFF84C800020002408E075
:106390004C45F5D22919321940463B4601F09DFA89
:1063A0003C440028F4D0EBE713460246094801F0CC
:1063B000AFBA00BF10B50446064801F06EFA002CD3
:1063C0000FBF0020611EB1FBF0F1013118BF48433F
:1063D00010BD00BF9C2A00082DE9F84F83461848DD
:1063E000DFF860A0894600219046D04704464FF070
:1063F00081500121D047061B0546012106FB0B40B9
:10640000D047074630440121D047BBF1000F06D1E9
:10641000611C04D0691C18BF17F1010105D14FF0B0
:10642000FF310220C9F8001005E0411CF7D0C11B64
:106430000020C9F80070C8F8001001B0BDE8F08F66
:10644000000011107962001070B5044602204CB3B0
:106450000D4639B320466C21FFF7B0FE064604F125
:106460006C0000F020F8B0421CBF022070BD04F1A7
:10647000080000F01EF8C5E9000104F1100000F06A
:1064800018F8C5E9020105F1100004F118012022F5
:10649000FCF75FFC05F1300004F158011022FCF715
:1064A00058FC002070BD00280EBF0020006800BA14
:1064B0007047D0B1026801796FF0FF0312BA41EA68
:1064C000022103EA1242437942EA116243EA0121BE
:1064D00083791202C07942EA116243EA012312026F
:1064E00042EA136140EA0320704700200021704710
:1064F00030B10A0AC17082700A0C090E4270017034
:10650000704768B1110AC2718171110C4171110E8D
:106510000171190AC3708170190C4170190E017054
:106520007047000001490860704700BF64260008FA
:1065300010B50446FFF79EFC0B490022002841F8E5
:10654000242009D0016849698847B0F1FF3FC4BFE2
:10655000002010BD444200E00924FBF791FF0460D5
:106560004FF0FF3010BD00BF08260008EFF3108089
:10657000012121EA000070470121D0E84F2FC0E837
:10658000431F002BF9D102F00100704780B501F0E4
:106590004FFA074801680131016080BD0448016875
:1065A00021B10139016008BF01F050BA704700BF46
:1065B000B46B0008EFF30580002818BF0120704776
:1065C00002F0C0BB082907D104480122817CC068C1
:1065D00002FA01F1816081610020704708280008FB
:1065E00080B501F073FA002080BDFEE7BCB51C4603
:1065F0000546084611460DF10603224600F0ACF8A8
:1066000060B9BDF806100124C1F3C70201F007010B
:10661000AB5C04FA01F123EA0101A95402B0B0BD58
:10662000F8B5BA490123012709688C690168008916
:10663000020ACDB2C6B20092C1F3074229460F2A20
:1066400038BF04EBC21420463246FDF7C5FB0B2EC3
:1066500005D00A2E06D10120A840A06002E007FA6A
:1066600005F06060002001B0F0BD00BFE0B5A749B3
:10667000012309688A6900210091C0F307410F29AD
:1066800038BF02EBC112C1B210460822FDF7A4FBCD
:10669000002002B080BD00BF08466FF31400B0F1C7
:1066A000805F1CBF2B48704710B50846FDF7B2FA53
:1066B0000446FEF723FA204610BD00BF70470020B5
:1066C0004FF400124FF0805308744FF40070C1E98A
:1066D0000032C1E9020070470020704708466FF39E
:1066E0001400B0F1805F1CBF1A487047B0B50D4868
:1066F0000C4600F580101040B0F1006F01D1154636
:1067000006E0094D11464FF400722846FCF721FBC4
:1067100020462946FDF70CFB0446FEF7EFF920461C
:10672000B0BD00BF0000E0FF886D00080948B1F16E
:10673000805F0DD303EB010CBCF1815F88BF704714
:1067400080B510461A46FCF749FB0020BDE88040A2
:10675000704700BF00001A042DE9F047074695482E
:1067600089461C469046152F8FBF40F21715791C9D
:10677000C9B230F8115030F817A001208E49B84046
:1067800008421BD0384600F03DF80028258013D081
:106790000646384600F020F848450DD916F809108D
:1067A0000AEB0802114409F10102218082423CBF38
:1067B000B05C0AEB000504E0294602E00AEB09019F
:1067C0002180AAB289B20348914238BF0020BDE8B7
:1067D000F08700BF00000204811E062908D80120AE
:1067E000DFE801F00B0A040A0A0C0E0004207047CF
:1067F000142804BF02207047002070470320704710
:1068000010207047811E062908D80948DFE801F0EA
:106810000B0A040A0A0C0E0009487047142804BF2A
:10682000044870470020704704487047024870478A
:1068300094910010AC9100109C910010999100105F
:106840009591001080B58C460146304802689069E9
:10685000C1F30743C9B20F2B38BF00EBC31092F846
:1068600079208B008258DA404CF0020302F00702D4
:10687000022B08BF0832FDF7D3FA002080BD00BF0D
:1068800080B5224AD2F800C0DCF81830C0F30742C5
:106890000F2A38BF03EBC2139CF879205FFA80FC03
:1068A0004FEA8C009A5822FA00F000F0080040EA03
:1068B000010218466146FDF7B3FA002080BD00BF13
:1068C000BCB5054611480C4600210068806900915E
:1068D000C5F307410F2938BF00EBC110E9B2FDF73E
:1068E0007BFA28462146FFF7ADFF280A0849C0EA8F
:1068F000054040F008000840C0F30721020C0820C2
:1069000002B0BDE8B04000F0E7B800BFB86B0008C7
:1069100008FFFF002DE9FE4F019126490546264B51
:1069200000270DF1080A4FF000080026152D31F858
:1069300010008FBF40F217116A1CD2B231F812104A
